:020000040800F2
:10000000000002201137000861370008613700083E
:100010006137000861370008613700080000000000
:100020000000000000000000000000006137000830
:1000300061370008000000006137000861370008E0
:100040006137000861370008613700086137000830
:10005000613700086137000861370008A117000800
:10006000C117000861370008E11700086137000870
:100070006137000861370008613700086137000800
:1000800061370008613700086137000861370008F0
:1000900061370008613700086137000861370008E0
:1000A00061370008613700086137000861370008D0
:1000B000B916000861370008613700086137000889
:1000C00061370008613700086137000861370008B0
:1000D00061370008613700086137000861370008A0
:1000E000F918000861370008613700086137000817
:1000F0006137000861370008613700086137000880
:10010000613700086137000859170008F118000826
:10011000613700086137000861370008613700085F
:10012000613700086137000861370008613700084F
:10013000613700086137000861370008613700083F
:10014000613700086137000861370008613700082F
:10015000613700086137000861370008613700081F
:10016000613700086137000861370008613700080F
:10017000613700086137000861370008000000009F
:08018000613700086137000837
:100188000348044B834202D0034B03B1184770471E
:100198001000002010000020000000000548064B59
:1001A8001B1AD90F01EBA301491002D0034B03B16D
:1001B80018477047100000201000002000000000C1
:1001C80010B5064C237843B9FFF7DAFF044B13B197
:1001D8000448AFF300800123237010BD10000020F5
:1001E80000000000185E000808B5044B1BB1044964
:1001F8000448AFF30080BDE80840CFE700000000E6
:1002080014000020185E0008844641EA000313F039
:1002180003036DD1403A41D351F8043B40F8043B05
:1002280051F8043B40F8043B51F8043B40F8043BC8
:1002380051F8043B40F8043B51F8043B40F8043BB8
:1002480051F8043B40F8043B51F8043B40F8043BA8
:1002580051F8043B40F8043B51F8043B40F8043B98
:1002680051F8043B40F8043B51F8043B40F8043B88
:1002780051F8043B40F8043B51F8043B40F8043B78
:1002880051F8043B40F8043B51F8043B40F8043B68
:1002980051F8043B40F8043B403ABDD2303211D308
:1002A80051F8043B40F8043B51F8043B40F8043B48
:1002B80051F8043B40F8043B51F8043B40F8043B38
:1002C800103AEDD20C3205D351F8043B40F8043B08
:1002D800043AF9D2043208D0D2071CBF11F8013B06
:1002E80000F8013B01D30B8803806046704700BFCC
:1002F800082A13D38B078DD010F003038AD0C3F1DB
:100308000403D21ADB071CBF11F8013B00F8013BBC
:1003180080D331F8023B20F8023B7BE7043AD9D37B
:10032800013A11F8013B00F8013BF9D20B78037050
:100338004B7843708B7883706046704770B484073D
:1003480046D0541E002A41D0CDB2034602E0621EB8
:10035800E4B3144603F8015B9A07F8D1032C2ED9AD
:10036800CDB245EA05250F2C45EA054519D926469B
:1003780003F11002103E0F2E42F8105C42F80C5C9C
:1003880042F8085C42F8045C02F11002F2D8A4F1C9
:10039800100222F00F0204F00F041032032C134451
:1003A8000DD91E462246043A032A46F8045BFAD8B9
:1003B800221F22F003020432134404F003042CB178
:1003C800C9B21C4403F8011BA342FBD170BC70479F
:1003D80014460346C2E7000081F0004102E000BF76
:1003E80083F0004330B54FEA41044FEA430594EAED
:1003F800050F08BF90EA020F1FBF54EA000C55EA28
:10040800020C7FEA645C7FEA655C00F0E2804FEAF8
:100418005454D4EB5555B8BF6D420CDD2C4480EADA
:10042800020281EA030382EA000083EA010180EA0A
:10043800020281EA0303362D88BF30BD11F0004F58
:100448004FEA01314FF4801C4CEA113102D040428E
:1004580061EB410113F0004F4FEA03334CEA1333C9
:1004680002D0524263EB430394EA050F00F0A780E1
:10047800A4F10104D5F1200E0DDB02FA0EFC22FADC
:1004880005F2801841F1000103FA0EF2801843FAD0
:1004980005F359410EE0A5F120050EF1200E012AC1
:1004A80003FA0EFC28BF4CF0020C43FA05F3C018FF
:1004B80051EBE37101F0004507D54FF0000EDCF178
:1004C800000C7EEB00006EEB0101B1F5801F1BD321
:1004D800B1F5001F0CD349085FEA30004FEA3C0C25
:1004E80004F101044FEA445212F5800F80F09A801B
:1004F800BCF1004F08BF5FEA500C50F1000041EB1F
:10050800045141EA050130BD5FEA4C0C404141EB22
:100518000101013C28BFB1F5801FE9D291F0000F1D
:1005280004BF01460020B1FA81F308BF2033A3F1CC
:100538000B03B3F120020CDA0C3208DD02F1140CC3
:10054800C2F10C0201FA0CF021FA02F10CE002F1FE
:100558001402D8BFC2F1200C01FA02F120FA0CFCF7
:10056800DCBF41EA0C019040E41AA2BF01EB045140
:10057800294330BD6FEA04041F3C1CDA0C340EDC3E
:1005880004F11404C4F1200220FA04F001FA02F381
:1005980040EA030021FA04F345EA030130BDC4F13F
:1005A8000C04C4F1200220FA02F001FA04F340EA34
:1005B8000300294630BD21FA04F0294630BD94F0E5
:1005C800000F83F4801306BF81F480110134013DCC
:1005D8004EE77FEA645C18BF7FEA655C29D094EA3D
:1005E800050F08BF90EA020F05D054EA000C04BFBB
:1005F8001946104630BD91EA030F1EBF00210020A6
:1006080030BD5FEA545C05D14000494128BF41F044
:10061800004130BD14F580043CBF01F5801130BDA8
:1006280001F0004545F0FE4141F470014FF0000033
:1006380030BD7FEA645C1ABF194610467FEA655CE4
:100648001CBF0B46024650EA013406BF52EA033586
:1006580091EA030F41F4002130BD00BF90F0000F74
:1006680004BF0021704730B54FF4806404F13204B0
:100678004FF000054FF0000150E700BF90F0000F69
:1006880004BF0021704730B54FF4806404F1320490
:1006980010F0004548BF40424FF000013EE700BF60
:1006A80042004FEAE2014FEA31014FEA02701FBFF0
:1006B80012F07F4393F07F4F81F06051704732F022
:1006C8007F4208BF704793F07F4F04BF41F4002179
:1006D800704730B54FF4607401F0004521F00041D7
:1006E8001CE700BF50EA010208BF704730B54FF061
:1006F80000050AE050EA010208BF704730B511F062
:10070800004502D5404261EB41014FF4806404F199
:1007180032045FEA915C3FF4D8AE4FF003025FEA1F
:10072800DC0C18BF03325FEADC0C18BF033202EBA3
:10073800DC02C2F1200300FA03FC20FA02F001FAFD
:1007480003FE40EA0E0021FA02F11444BDE600BFA0
:1007580053B94AB9002908BF00281CBF4FF0FF3120
:100768004FF0FF3000F09CB9ADF1080C6DE904CEF4
:1007780000F006F8DDF804E0DDE9022304B0704774
:100788002DE9F04782B00646DDF828E00846B44671
:100798000D46002B4ED18A4214466DD9B2FA82F228
:1007A80042B1C2F12003954026FA03F394401D4359
:1007B80006FA02FC260CA7B2B5FBF6F14FEA1C4379
:1007C80006FB115543EA054301FB07F0984209D996
:1007D800E31801F1FF3580F00381984240F200816F
:1007E800023923441B1A1FFA8CFCB3FBF6F006FBF4
:1007F80010334CEA034C00FB07F363450AD914EBAA
:100808000C0C00F1FF3580F0ED80634540F2EA8082
:10081800A444023840EA0140ACEB030C0021BEF1CD
:10082800000F04D02CFA02F30022CEE9003202B005
:10083800BDE8F0878B4209D9BEF1000F01D0CEE99F
:1008480000610021084602B0BDE8F087B3FA83F1E1
:10085800174600294DD1834202D3B24200F20F81DC
:10086800B6EB070C60EB030301201D46BEF1000F39
:10087800DDD0CEE900C5DAE7002A00F098801A46F4
:10088800B4FA84F3002B40F0AF800B1B270CA6B200
:100898000121B3FBF7F54FEA1C4007FB153340EA8B
:1008A800034306FB05F8984507D9E31805F1FF301F
:1008B80002D2984500F2E8800546A3EB08031FFA28
:1008C8008CFCB3FBF7F007FB10334CEA034C06FB38
:1008D80000F3634508D914EB0C0C00F1FF3602D283
:1008E800634500F2CE803046ACEB030C40EA05408D
:1008F80095E7C1F120058B4022FA05FC4CEA030C70
:1009080000FA01F426FA05F3E84002FA01F943EA8D
:1009180004084FEA1C4206FA01FAB0FBF2F71FFA84
:100928008CF602FB17004FEA184444EA004407FB20
:1009380006F0A0420AD91CEB040407F1FF3380F04B
:100948009C80A04240F29980023F6444241A1FFA16
:1009580088F3B4FBF2F002FB104443EA044300FBC3
:1009680006F69E4209D91CEB030300F1FF3480F020
:1009780082809E427FD90238634440EA0740A0FB48
:1009880009749B1BA3423E46A04664D361D0BEF1C6
:10099800000F0AD0BAEB060263EB080303FA05F569
:1009A800CA401543CB40CEE9005300213FE7730806
:1009B80043EAC1734A08190C41EA02414FEAC67C6E
:1009C8009BB2B2FBF4F02646A04627461F2243EA14
:1009D8000143B1FBF4F1A3EB080341EA004158E7F6
:1009E8002946FFE6284615E71A46C3F120019C4030
:1009F80026FA01F320FA01F190400343270C06FA86
:100A080002FCB1FBF7F0A6B207FB1015190C41EA7E
:100A1800054100FB06F58D423BD9611801D28D4294
:100A280020D8491B0138B1FBF7F5019505FB06F8FD
:100A3800019D9BB207FB151143EA0143434526D2AA
:100A4800E31805F1FF31C6D24345C4D2A91E234499
:100A5800C1E7BA459BD2B7EB090664EB0C04013831
:100A6800A04694E7651B29440238B1FBF7F50195C8
:100A780005FB06F8DCE720467FE71F4666E70846E1
:100A8800F4E6A44402382FE7023D234415E7019910
:100A9800A1E7491BB1FBF7F5019505FB06F8C7E788
:100AA800704700BF10B594B008AC30220021204632
:100AB800FFF744FC002303930493059306930793DD
:100AC80001931F4A116C41F080511164126C02F0BD
:100AD80080520192019A02931A4B1A6842F480429A
:100AE8001A601B6803F480430293029B0123089356
:100AF8004FF48033099302230E934FF480020F9230
:100B0800082210924FF4A87211921293072313939C
:100B1800204601F0EDF900B1FEE70F23039302230D
:100B2800049305904FF4A05306934FF48053079312
:100B3800052103A801F048FC00B1FEE714B010BD80
:100B4800003802400070004086B0002201921A4B23
:100B5800196B41F001011963196B01F00101019151
:100B680001990292196B41F002011963196B01F0A6
:100B78000201029102990392196B41F00401196371
:100B8800196B01F00401039103990492196B41F068
:100B980080011963196B01F0800104910499059291
:100BA8001A6B42F480721A631B6B03F4807305930B
:100BB800059B06B0704700BF0038024000B583B0FF
:100BC800002301930E4A516C41F010015164526C9C
:100BD80002F010020192019A0A480B4A02604FF48F
:100BE800E13242608360C36003610C224261836129
:100BF800C36102F0F2FC00B1FEE703B000BD00BF24
:100C0800003802406C0100200010014000B583B09C
:100C180000230193114A116C41F480411164126C54
:100C280002F480420192019A0D480E4A02604FF484
:100C3800827242608360C360036143614FF4007253
:100C480082612022C2610362436283620A23C36213
:100C580002F095F800B1FEE703B000BD003802408D
:100C6800140100200038004000B583B00023019330
:100C7800124A116C41F400411164126C02F40042F2
:100C88000192019A0E480F4A026043608360C36074
:100C98000361436183610362436283620A23C3621F
:100CA80002F06DF800B1FEE702460321332001F09F
:100CB800F7F8332001F004F903B000BD0038024012
:100CC800BC000020003C004070B586B000230193B2
:100CD800224A116C41F008011164126C02F00802FA
:100CE8000192019A1E481F4A0260436083604FF0D8
:100CF800FF32C2600361836101F07EFE00B1FEE74E
:100D080002AD0446029003900490059001230393DA
:100D1800134E02462946304601F0E4FE04222946D5
:100D2800304601F0DFFE22460121322001F0B8F8FA
:100D3800322001F0C5F83368DA6842F00102DA605F
:100D4800DA6842F00202DA60DA6842F00402DA6035
:100D5800304601F091FD06B070BD00BF003802407A
:100D68002C000020000C004070B586B000230193D1
:100D78002B4A116C41F001011164126C02F001025E
:100D88000192019A27484FF08042026043608360D5
:100D98004FF0FF32C2600361836101F02DFE00B1A4
:100DA800FEE702AC064602900390049005900123EA
:100DB80003931C4D02462146284601F093FE042267
:100DC8002146284601F08EFE08222146284601F0D9
:100DD80089FE0C222146284601F084FE3246012174
:100DE8001C2001F05DF81C2001F06AF82B68DA6815
:100DF80042F00102DA60DA6842F00202DA60DA6888
:100E080042F00402DA60DA6842F00802DA60DA686E
:100E180042F01002DA60284601F02EFD06B070BDDF
:100E2800003802407400002008B500F0ADFFFFF75D
:100E380039FEFFF789FEFFF7C1FE174800F0D0FE24
:100E4800012000F0DDFEFFF7E1FEFFF70DFFFFF7E1
:100E58008BFFFFF739FF00F071F800F0CDFC00F0D0
:100E6800FFFDA8B90D4800F00FFF00F073FE0C4815
:100E780000F00AFF0B4800F007FF0B4800F004FFE2
:100E88000A4800F001FF00F06DFB00F06BFEFAE786
:100E9800074800F0F9FEE8E76C01002058610008F7
:100EA8007C61000894610008B4610008DC610008F6
:100EB800706100080E4B1B68DA6842F00202DA60C3
:100EC800DA6842F00402DA60DA6842F00802DA60AE
:100ED800DA6842F01002DA60064B1B68DA6842F002
:100EE8000202DA60DA6842F00402DA60704700BF92
:100EF800540300200C0300200E4B1B68DA6822F014
:100F08000202DA60DA6822F00402DA60DA6822F0B3
:100F18000802DA60DA6822F01002DA60064B1B6811
:100F2800DA6822F00202DA60DA6822F00402DA6093
:100F3800704700BF540300200C0300202DE9F04344
:100F48008DB0002401946A4E336C43F0010333647E
:100F5800336C03F001030193019B664D4FF080430E
:100F68002B606C60AC604FF0FF37EF602C61AC61B8
:100F7800284601F041FD0294336C43F008033364C2
:100F8800336C03F008030293029B5B4E5B4B3360A8
:100F98007460B460F7603461B461304601F02CFDD0
:100FA80008AF089409940A940B944FF00108CDF8FF
:100FB800248022463946284601F094FD0422394609
:100FC800284601F08FFD08223946284601F08AFD9F
:100FD8000C223946284601F085FD2246394630461E
:100FE80001F080FD04223946304601F07BFD22469F
:100FF80041461C2000F054FF1C2000F061FF2A68C5
:10100800D36843EA0803D36022464146322000F001
:1010180047FF322000F054FF3268D36843EA0803E0
:10102800D360284601F028FC304601F025FC03AEC9
:1010380003940494059406940794CDF80C80CDF895
:101048001080DFF8CC903146484601F093FA2246EA
:101058004146484601F099FB022703974FF4881848
:10106800CDF8108005973146484601F083FA0423ED
:101078000393CDF8108005973146484601F07AFA77
:1010880010230393CDF8108005973146484601F0A8
:1010980071FA22463946072000F002FF072000F0C7
:1010A8000FFF22463946082000F0FAFE082000F01B
:1010B80007FF224639460A2000F0F2FE0A2000F017
:1010C800FFFE0F4B1C700F4B1C600F4B1C602B68F6
:1010D8005C6203E00D4B00221A550134032CF9DD44
:1010E800054B1B6800225A620DB0BDE8F08300BFB3
:1010F80000380240540300200C030020000C00407C
:1011080008030020CC0200209C030020D00200200D
:1011180000040240014B01221A707047B6010020FA
:10112800014B01221A707047B5010020014B0122C2
:101138001A707047B4010020144B1B78022B00D0A2
:10114800704710B50446124B1B78CBB9114B1B786E
:10115800BBB1114B1968114B1B681A6912F0010FCA
:1011680000D001310E4A11605460094A0121117002
:1011780008490A7801320A70DA6822F00202DA6055
:1011880010BD00F01BFE074B1860E2E708030020C3
:10119800D0020020BC0200209C0300205403002041
:1011A800D8020020C0020020144B1B78022B00D06C
:1011B800704710B50446124B5B78CBB9114B1B78BE
:1011C800BBB1114B1968114B1B681A6912F0010F5A
:1011D80000D001310E4A9160D460094A0121517052
:1011E80008490A7801320A70DA6822F00402DA60E3
:1011F80010BD00F0E3FD074B1860E2E7080300208C
:10120800D0020020BC0200209C03002054030020D0
:10121800D8020020C0020020144B1B78022B00D0FB
:10122800704710B50446124B9B78CBB9114B1B780D
:10123800BBB1114B1968114B1B681A6912F0010FE9
:1012480000D001310E4A11615461094A012191709F
:1012580008490A7801320A70DA6822F00802DA606E
:1012680010BD00F0ABFD074B1860E2E70803002053
:10127800D0020020BC0200209C0300205403002060
:10128800D8020020C0020020144B1B78022B00D08B
:10129800704710B50446124BDB78CBB9114B1B785D
:1012A800BBB1114B1968114B1B681A6912F0010F79
:1012B80000D001310E4A9161D461094A0121D170EF
:1012C80008490A7801320A70DA6822F01002DA60F6
:1012D80010BD00F073FD074B1860E2E7080300201B
:1012E800D0020020BC0200209C03002054030020F0
:1012F800D8020020C0020020144B1B78022B00D01B
:10130800704710B50446124B1B79CBB9114B1B78AB
:10131800BBB1114B1968114B1B681A6912F0010F08
:1013280000D001310E4A11625462094A012111713B
:1013380008490A7801320A70DA6822F00202DA6093
:1013480010BD00F03BFD074B1860E2E708030020E2
:10135800D0020020BC0200209C0300200C030020C7
:10136800D8020020C0020020144B1B78022B00D0AA
:10137800704710B50446124B5B79CBB9114B1B78FB
:10138800BBB1114B1968114B1B681A6912F0010F98
:1013980000D001310E4A9162D462094A012151718B
:1013A80008490A7801320A70DA6822F00402DA6021
:1013B80010BD00F003FD074B1860E2E708030020AA
:1013C800D0020020BC0200209C0300200C03002057
:1013D800D8020020C0020020024A136801331360BB
:1013E800704700BF9C030020054B1968054B1B681C
:1013F800586A1B6913F0010F00D00131704700BF14
:101408009C0300205403002000B58DB0114BDA6A0C
:101418000A929A6A09925A6A08921A6A0792DA69CB
:1014280006929A6905925A6904921A690392DA68CF
:1014380002929A6801925A6800921B68064A4FF411
:101448008071064802F09AF9054BA8221A800DB05F
:1014580000BD00BFD802002000620008BC010020C7
:10146800B801002008B5002309E00021094AD15439
:10147800094A42F8331002EBC30251600133052BCD
:10148800F3DD0023054A1370054A1360FFF712FDC8
:1014980008BD00BFD0020020D8020020BC020020F6
:1014A800C002002008B5FFF727FD002303E0064A25
:1014B8000021D1540133052BF9DD0023034A1370B1
:1014C800034A136008BD00BFD0020020BC02002000
:1014D800C002002010B5FFF70FFD002309E000212E
:1014E800134AD154134A42F8331002EBC302516035
:1014F8000133052BF3DD00240F4B1C600F4B1C60E0
:101508000F4B1B685C620F4B1C700F4B1C60224614
:1015180001210E4801F039F90D4B1C700D4B1C7060
:101528000D4B1C700D4B1C700D4B1C7010BD00BF7B
:10153800D0020020D8020020CC0200209C0300200A
:1015480054030020BC020020C00200200004024016
:10155800C402002008030020B6010020B5010020C5
:10156800B401002008B5464B1B7803BB454B1B78DC
:1015780033B1444B00221A70434B1B78032B1CD009
:10158800414B1B78012B2ED0022B4AD0A3B93F4BDD
:101598001B788BB13D4B00221A7000F00FFC3C4BBE
:1015A800186001233B4A1370374A137004E0344B28
:1015B80000221A70FFF78EFF08BD0121364801F09E
:1015C800E4F8364A136801331360022B05D9FFF794
:1015D80069FF2D4B00221A70D2E7FFF743FF2A4B11
:1015E80002221A70CCE704212B4801F0C7F818B979
:1015F800284A1070244A1070264B1B78002BDBD029
:1016080000F0DCFB224B1B68C01AB0F5FA6FD3D38D
:10161800204B00221A70FFF725FF1B4B02221A707D
:10162800CAE704211C4801F0A9F888B11C4B1B78B3
:10163800062B13D0002BBFD000F0C0FB194B1B6842
:10164800C01A3128B8D9FFF72DFFFFF70BFFB3E712
:10165800FFF728FF0C4B00221A70ADE7FFF7D4FE06
:10166800114B1988114800F0E7F8012211460A4881
:1016780001F08BF8044B03221A70FFF73DFC9BE73F
:10168800B4010020B501002008030020B6010020A5
:10169800C8020020C402002000040240CC0200203E
:1016A800BC020020C0020020B8010020BC010020BC
:1016B80008B5264B1B681A6912F0020F18D1234B84
:1016C8001B681A6912F0040F1CD1204B1B681A6999
:1016D80012F0080F20D11D4B1B681A6912F0100F69
:1016E80024D11A4B1B681A6912F0010F28D108BDC2
:1016F8006FF002021A610021144801F0FCF8FFF7AC
:101708001BFDDCE76FF004021A6104210F4801F0A9
:10171800F2F8FFF749FDD8E76FF008021A610821CF
:101728000A4801F0E8F8FFF777FDD4E76FF01002F8
:101738001A610C21054801F0DEF8FFF7A5FDD0E796
:101748006FF001021A61FFF747FED0E7540300204B
:1017580008B5104B1B681A6912F0020F06D10D4B21
:101768001B681A6912F0040F0AD108BD6FF0020253
:101778001A610021074801F0BEF8FFF7BDFDEEE74A
:101788006FF004021A610421024801F0B4F8FFF76F
:10179800EBFDEAE70C03002008B5064B5B6913F084
:1017A800020F00D108BD034B02225A61FFF7B8FCB3
:1017B800F8E700BF003C014008B5064B5B6913F031
:1017C800040F00D108BD034B04225A61FFF7A2FCA5
:1017D800F8E700BF003C014008B5064B5B6913F011
:1017E800100F00D108BD034B10225A61FFF79EFC71
:1017F800F8E700BF003C014010B586B001A90024FD
:1018080001944C608C60CC600C614FF400430193F0
:101818004FF44413029301230393064800F0AAFEF1
:1018280022460321282000F03BFB282000F048FB3B
:1018380006B010BD00000240034B1860034B19802E
:10184800034B00221A807047A4030020A203002043
:10185800A00300200E4B1B689A6812F0020F16D0E6
:101868000C4A12788AB10C4A116871B10B4A128875
:101878000B480088824205D2895C19730132074BF4
:101888001A80704700221A73704700221A73704733
:10189800BC000020A8030020A4030020A00300200F
:1018A800A2030020034B01221A70034B00221A8066
:1018B800704700BFA8030020A0030020014B0022AE
:1018C8001A707047A803002008B54FF40041054876
:1018D80000F054FF10B9FFF7E5FF08BDFFF7EEFF72
:1018E800FBE700BF0000024008B5FFF7B3FF08BDE3
:1018F80008B5064B5B6913F4004F00D108BD034BD4
:101908004FF400425A61FFF7DFFFF7E7003C014060
:1019180008B500224FF48051014800F036FF08BD99
:101928000004024008B501224FF48051014800F03C
:101938002CFF08BD0004024000B583B000F07F0012
:101948008DF804008DF80510FFF7E2FF4FF0FF3324
:10195800022201A9034801F071FAFFF7E3FF03B07F
:1019680000BD00BF1401002010B582B040F0800017
:101978008DF8070000238DF80630FFF7C9FF0B4CE0
:101988004FF0FF3301220DF10701204601F056FA0E
:101998004FF0FF3301220DF10601204601F062FCF1
:1019A800FFF7C0FF9DF8060002B010BD140100202B
:1019B80070B582B00E46154640F080008DF80700DD
:1019C800FFF7A6FF094C4FF0FF3301220DF1070185
:1019D800204601F033FA4FF0FF332A4631462046BD
:1019E80001F040FCFFF79EFF02B070BD140100201B
:1019F80008B5B621E020FFF79FFF0A2000F0E4F9C0
:101A080008BD08B5F320FFF7AFFFC0F3C00008BD5D
:101A180000B583B0062269468820FFF7C9FF9DF804
:101A280001209DF8003043EA02230A4A13809DF8FA
:101A380003209DF8023043EA0223074A13809DF8E9
:101A480005209DF8043043EA0223044A138001204C
:101A580003B000BDAE030020AC030020AA030020A1
:101A680008B501224FF480510D4800F08EFEFFF7B3
:101A7800BFFFD020FFF778FF602801D0002008BD05
:101A88000121F220FFF758FF2521F420FFF754FF2A
:101A98000021F520FFF750FFFFF7BAFFEFE700BF7F
:101AA8000004024010B582B00446F420FFF75CFF42
:101AB80000F0FC0141F00101F420FFF73DFF02E0D6
:101AC800012000F081F9FFF79CFF0028F8D10322DC
:101AD80001A9FA20FFF76CFF9DF804309DF8052056
:101AE800120142EA03329DF8063042EA1312154BFE
:101AF8001B885900C1EBE2011348B0F9000000FB54
:101B080001F1C3EB221303FB03F31B130F4AB2F9D2
:101B1800002002FB03F39B1303EBE12303EB830396
:101B280080331B1207EE903AF8EEE77AC4ED007A9C
:101B3800DFED076A87EEA67A84ED007A012002B00D
:101B480010BD00BFAE030020AC030020AA03002094
:101B58000000C84208B500F031F9014B186008BD13
:101B6800B003002030B597B000F028F9184B1B6877
:101B7800C01A47F22F53984201D817B030BD00F071
:101B88001DF9134B186005A8FFF78CFFB8B1FFF7D4
:101B98002BFC05460C460598FEF782FDCDE90201AF
:101BA800009501940B4A402106A801F0E7FD4FF08B
:101BB800FF3382B206A9084801F03FFDDDE74FF088
:101BC800FF3313220549044801F037FDD5E700BF6C
:101BD800B0030020886200086C0100209C620008A5
:101BE800044B1860044B00221A60044B01221A703F
:101BF800704700BF64660020606600200000002077
:101C0800014B1870704700BF0000002008B5084B52
:101C1800D3F800C0BCF1000F00D001B908BD4FF0E7
:101C2800FF338AB20146604601F007FDF6E700BFC0
:101C380064660020114B1B78F3B1E9B170B5104B05
:101C48001A68154646F2A7139A4214D846F2A81302
:101C58009C1A9A420FD0A14200D80C46264622462A
:101C68000146084C6019FEF7CFFA32462A44044B65
:101C78001A600023A35470BD704700BF0000002005
:101C880060660020B40300200FB410B582B004AB26
:101C980053F8042B01934FF480710B4802F0BEFFF8
:101CA80000280CDB0346FF2800D9FF231C461946F1
:101CB8000548FFF7ABFF21460348FFF7BBFF02B01B
:101CC800BDE8104004B0704760650020144AD2F89F
:101CD800883043F47003C2F88830124B196841F019
:101CE8000101196000209860196821F0847121F4BD
:101CF800803119600C495960196821F480211960F4
:101D0800D8604FF000639360D16821F4E061090462
:101D1800090C064B0B43D360054B064A1A60704703
:101D280000ED00E000380240103000240003FA05FE
:101D3800040000200024F4007047000010B5044699
:101D48000E4B18680E4B1A784FF47A73B3FBF2F304
:101D5800B0FBF3F000F0B8F868B90F2C01D90120F6
:101D68000AE0024621464FF0FF3000F099F8054B93
:101D78001C60002000E0012010BD00BF040000200E
:101D8800080000200C00002008B50B4B1A6842F42C
:101D980000721A601A6842F480621A601A6842F483
:101DA80080721A60032000F069F80F20FFF7C6FF61
:101DB800FFF7C2FF002008BD003C0240014B186835
:101DC800704700BF6866002038B50446FFF7F6FF85
:101DD8000546B4F1FF3F02D0044B1B781C44FFF7C3
:101DE800EDFF401BA042FAD338BD00BF0800002019
:101DF800002807DB00F01F02400901239340024A34
:101E080042F82030704700BF00E100E0002808DBFE
:101E18000901C9B200F1604000F5614080F8001383
:101E2800704700F00F000901C9B2014B19547047FF
:101E380014ED00E000B500F00700A0F1030CBCF1C0
:101E4800040F07D8C0F1070E0430062806D84FF053
:101E5800000C03E04FF0040E4FF0000C4FF0FF337E
:101E680003FA0EF021EA000101FA0CF103FA0CF36F
:101E780022EA030241EA020000BD0000074AD368D3
:101E880023F4E0631B041B0C000200F4E06003432E
:101E980043F0BF6343F40033D360704700ED00E0C4
:101EA80010B50446054BD868C0F30220FFF7C2FFFF
:101EB80001462046FFF7AAFF10BD00BF00ED00E075
:101EC80008B5FFF795FF08BD0138B0F1807F0BD248
:101ED8004FF0E0235861054AF02182F823100020D2
:101EE800986107221A6170470120704700ED00E0F1
:101EF800002800F0E28170B582B00446036813F050
:101F0800010F3BD09B4B9B6803F00C03042B2CD098
:101F1800984B9B6803F00C03082B21D06368B3F53A
:101F2800803F4FD0B3F5A02F52D0924B1A6822F4BD
:101F380080321A601A6822F480221A606368002BC3
:101F480050D0FFF73BFF05468A4B1B6813F4003F50
:101F580014D1FFF733FF401B6428F5D90320B3E100
:101F6800844B5B6813F4800FD8D0824B1B6813F442
:101F7800003F03D06368002B00F0A181236813F0B1
:101F8800020F54D07B4B9B6813F00C0F3ED0794B5B
:101F98009B6803F00C03082B33D0E368002B68D050
:101FA800754B01221A60FFF709FF0546714B1B6844
:101FB80013F0020F54D1FFF701FF401B0228F5D997
:101FC800032081E16B4A136843F480331360B5E75B
:101FD800684B1A6842F480221A601A6842F4803208
:101FE8001A60ABE7FFF7EAFE0546624B1B6813F47D
:101FF800003FC3D0FFF7E2FE401B6428F5D9032059
:1020080062E15C4B5B6813F4800FC6D1594B1B68C7
:1020180013F0020F03D0E368012B40F05281554AB8
:10202800136823F0F803216943EAC10313602368A6
:1020380013F0080F42D063696BB34F4B0122C3F80A
:10204800802EFFF7BBFE05464A4B5B6F13F0020F6D
:1020580034D1FFF7B3FE401B0228F5D9032033E142
:10206800444A136823F0F803216943EAC103136063
:10207800DDE7414B00221A60FFF7A0FE05463D4B05
:102088001B6813F0020FD2D0FFF798FE401B0228FE
:10209800F5D9032018E1384B0022C3F8802EFFF74A
:1020A8008DFE0546334B5B6F13F0020F06D0FFF72A
:1020B80085FE401B0228F5D9032005E1236813F0AB
:1020C800040F79D02B4B1B6C13F0805F34D10023A5
:1020D8000193284B1A6C42F080521A641B6C03F06F
:1020E80080530193019B01231E46244B1B6813F464
:1020F800807F24D0A368012B35D0052B40D01D4B01
:102108001A6F22F001021A671A6F22F004021A6786
:10211800A368002B3ED0FFF751FE0546154B1B6FF9
:1021280013F0020F47D1FFF749FE401B41F28833F5
:102138009842F3D90320C7E000231E46D5E70F4A8B
:10214800136843F480731360FFF738FE05460B4BA2
:102158001B6813F4807FCDD1FFF730FE401B0228A7
:10216800F5D90320B0E0034A136F43F00103136766
:10217800CEE700BF00380240000047420070004030
:10218800584B1A6F42F004021A671A6F42F00102A4
:102198001A67BDE7FFF712FE0546524B1B6F13F097
:1021A800020F08D0FFF70AFE401B41F2883398421D
:1021B800F3D9032088E0EEB9A369002B00F08380EF
:1021C800484A926802F00C02082A51D0022B17D014
:1021D800454B00221A66FFF7F1FD0446414B1B6888
:1021E80013F0007F42D0FFF7E9FD001B0228F5D964
:1021F800032069E03B4A136C23F080531364DBE748
:10220800394B00221A66FFF7D9FD0546354B1B6886
:1022180013F0007F06D0FFF7D1FD401B0228F5D947
:10222800032051E0E369226A1343626A43EA821396
:10223800A26A5208013A43EA0243E26A43EA0263A5
:10224800284A5360284B01221A66FFF7B7FD044657
:10225800244B1B6813F0007F06D1FFF7AFFD001B6E
:102268000228F5D903202FE000202DE000202BE0E4
:10227800012B2BD01B4B5B6803F48001E269914270
:1022880026D103F03F02216A8A4223D1616A47F6C8
:10229800C0721A40B2EB811F1ED103F44031A26A0A
:1022A8005208013AB1EB024F18D103F07063E26AA9
:1022B800B3EB026F14D1002006E001207047012023
:1022C80002E0012000E0184602B070BD0120FBE7E3
:1022D8000120F9E70120F7E70120F5E70120F3E7FE
:1022E8000120F1E7003802400000474208B5334BAF
:1022F8009B6803F00C03042B5BD0082B5BD12F4B9E
:102308005A6802F03F025B6813F4800F2CD02B4B05
:102318005868C0F388104FEA401CBCEB000C6EEB09
:102328000E0E4FEA8E1343EA9C634FEA8C11B1EB11
:102338000C0163EB0E03DB0043EA5173C90011EB98
:10234800000C43F10003590200234FEA4C2041EAF4
:10235800DC51FEF7FDF9194B5B68C3F30143013308
:102368005B00B0FBF3F008BD144B5868C0F388104D
:102378004FEA401CBCEB000C6EEB0E0E4FEA8E13BE
:1023880043EA9C634FEA8C11B1EB0C0163EB0E033B
:10239800DB0043EA5173C90011EB000C43F1000361
:1023A800990200234FEA8C2041EA9C51FEF7D0F9AC
:1023B800D1E70348D7E70348D5E700BF0038024014
:1023C80000127A000024F400002800F09B8070B509
:1023D8000D4604464F4B1B6803F007038B4208D297
:1023E800CBB24C4A1370136803F007038B4240F0DA
:1023F8008B80236813F0020F17D013F0040F04D05A
:10240800454A936843F4E0539360236813F0080F38
:1024180004D0414A936843F4604393603E4A93680A
:1024280023F0F003A1680B439360236813F0010FB6
:1024380032D06368012B21D09A1E012A25D9364A49
:10244800126812F0020F61D033498A6822F0030241
:1024580013438B60FFF7B2FC06462F4B9B6803F0D3
:102468000C036268B3EB820F16D0FFF7A7FC801B42
:1024780041F288339842F0D9032042E0264A126894
:1024880012F4003FE0D101203BE0234A126812F029
:10249800007FD9D1012034E01E4B1B6803F00703ED
:1024A800AB4207D9EAB21B4B1A701B6803F007034B
:1024B800AB422DD1236813F0040F06D0164A936857
:1024C80023F4E053E1680B439360236813F0080F8B
:1024D80007D0114A936823F46043216943EAC10392
:1024E8009360FFF703FF0C4B9B68C3F303130B4A7E
:1024F800D35CD8400A4B18600A4B1868FFF71EFCDB
:10250800002070BD012070470120FAE70120F8E79C
:102518000120F6E7003C024000380240C86200088B
:10252800040000200C000020014B1868704700BF11
:102538000400002008B5FFF7F7FF044B9B68C3F3BE
:102548008223034AD35CD84008BD00BF003802404C
:10255800C062000808B5FFF7E7FF044B9B68C3F3A8
:102568004233034AD35CD84008BD00BF003802405C
:10257800C062000870B582B08E46002369E08568A5
:102588004FEA430C032101FA0CF125EA0105DEF8B4
:102598000C1001FA0CF129438160416821EA02011B
:1025A800DEF80420C2F300129A400A43426065E054
:1025B800D908083150F8212003F00705AD004FF085
:1025C8000F0C0CFA05FC22EA0C0CDEF81020AA40CD
:1025D80042EA0C0240F8212067E0072200E00022CE
:1025E80002FA0CF22A430231604D45F82120604A74
:1025F8009168E24321EA0405DEF8046016F4801FBE
:1026080001D044EA01055A498D60C96802EA01050A
:10261800DEF8046016F4001F01D044EA01055449AD
:10262800CD60496802EA0105DEF8046016F4003F4F
:1026380001D044EA01054E494D6009680A40DEF8B8
:10264800045015F4803F01D044EA010248490A6069
:1026580001330F2B00F2878001229A40DEF8001028
:1026680001EA020432EA0101F2D1DEF8041001F0B5
:10267800030C0CF1FF3CBCF1010F80D9DEF80420FB
:1026880002F00302032A0AD0C1685D000322AA40AF
:1026980021EA0201DEF80820AA400A43C260DEF8F7
:1026A800042002F00302022A82D001684FEA430C98
:1026B800032202FA0CF221EA0201DEF8042002F0F9
:1026C800030202FA0CF20A430260DEF8042012F454
:1026D800403FBDD000220192264A516C41F480410E
:1026E8005164526C02F480420192019A99088D1C3F
:1026F8001E4A52F8255003F0030C4FEA8C0C0F22A7
:1027080002FA0CF225EA02051B4A90423FF467AF31
:1027180002F5806290421AD002F58062904218D089
:1027280002F58062904216D002F58062904214D081
:1027380002F58062904212D002F58062904210D079
:1027480002F5806290423FF448AF082248E7012230
:1027580046E7022244E7032242E7042240E7052233
:102768003EE706223CE702B070BD00BF00380140DA
:10277800003C014000380240000002400369194251
:1027880001D001207047002070470AB1816170476D
:10279800090481617047000000B59646D0F820C052
:1027A800026A22F0100202620E4A904203D002F539
:1027B8008062904203D1026A22F04002026282697A
:1027C80022F4407242EA0E2222F470421B039BB2AA
:1027D80013432CF0A002090101F0A0011143836109
:1027E800016200BD0000014000B59646D0F820C047
:1027F800026A22F4807202620E4A904203D002F505
:102808008062904203D1026A22F480620262C26945
:1028180022F0030242EA0E0222F0F0021B01DBB2B0
:1028280013432CF42062090201F420611143C361AF
:10283800016200BD0000014000B5D0F820E0D0F8EA
:1028480020C02CF4805CC0F820C0D0F81CC02CF448
:10285800407C4CEA022C2CF4704C1B039BB243EADC
:102868000C032EF4204E090301F4204141EA0E0125
:10287800C361016200BD000090F83D30012B32D1E8
:10288800022380F83D300368194A934220D0B3F1FF
:10289800804F1DD0A2F57C42934219D002F5806288
:1028A800934215D002F58062934211D002F5784226
:1028B80093420DD002F57052934209D0A2F594329A
:1028C800934205D01A6842F001021A60002070474E
:1028D8009A6802F00702062A07D01A6842F0010235
:1028E8001A6000207047012070470020704700BF21
:1028F800000001407047082912D007D869B104299F
:1029080002D10368986B7047002070470C2902D1E8
:102918000368186C7047002070470368586B70474D
:102928000368D86B704700000368324A904212D09F
:10293800B0F1804F0FD0A2F57C4290420BD002F547
:102948008062904207D002F58062904203D002F57F
:102958007842904203D123F070034A681343254A12
:1029680090422AD0B0F1804F27D0A2F57C42904205
:1029780023D002F5806290421FD002F58062904217
:102988001BD002F57842904217D002F5705290425F
:1029980013D002F5806290420FD002F58062904217
:1029A8000BD0A2F59832904207D002F5806290428F
:1029B80003D002F58062904203D123F44073CA68C1
:1029C800134323F080034A6913438A68C2620A6882
:1029D8008262084A904203D002F58062904201D197
:1029E8000A690263026842F004020260012242613D
:1029F800036070470000014040B310B5044690F8EA
:102A08003D30F3B1022384F83D30214651F8040BE0
:102A1800FFF78AFF012384F8463084F83E3084F8B3
:102A28003F3084F8403084F8413084F8423084F8EC
:102A3800433084F8443084F8453084F83D30002031
:102A480010BD80F83C30FFF755FFDBE701207047E9
:102A580030B51546D0F820C0026A22F001020262A1
:102A68001E4A904203D002F58062904203D1026A66
:102A780022F0040202628269DFF860E070451CD02F
:102A8800B0F1804F19D0164CA04216D004F58064DE
:102A9800A04212D004F58064A0420ED004F5784418
:102AA800A0420AD004F57054A04206D0A4F594348C
:102AB800A04202D042F0010202E022F003022A43BF
:102AC80022F0F0021B01DBB213432CF00A0201F0E2
:102AD8000A0111438361016230BD00BF000001405B
:102AE8000004004038B590F83C30012B5AD0044619
:102AF8000D46012380F83C3052B1042A1AD0082A26
:102B08002BD00C2A3BD00120002384F83C3038BD60
:102B1800CB684A6809680068FFF79AFF22689369DA
:102B280023F00C03936122689369A9680B439361AE
:102B38000020E9E7CB684A6809680068FFF72CFEBF
:102B48002268936923F44063936122689369A968B2
:102B580043EA012393610020D6E7CB684A680968F5
:102B68000068FFF741FE2268D36923F00C03D361A4
:102B78002268D369A9680B43D3610020C4E7CB68F6
:102B88004A6809680068FFF757FE2268D36923F48A
:102B98004063D3612268D369A96843EA0123D361FA
:102BA8000020B1E70220B2E72DE9F04383B00446E4
:102BB8000F4616461D46FFF701F90A9B1B1A03EB41
:102BC8000508FFF7FBF88146284B1B68C3F3CB3396
:102BD80008FB03F3019323689B6837EA03030CBFE0
:102BE80001230023B3423DD0B5F1FF3FF3D0FFF7F7
:102BF800E5F84B46C01A404503D2019B73BB984683
:102C0800E9E72268536823F0E00353606368B3F58B
:102C1800827F0BD0A36AB3F5005F14D0012384F838
:102C28005130002384F8503003201CE0A368B3F52A
:102C3800004F02D0B3F5806FECD12268136823F0FF
:102C480040031360E6E72268136823F40053136017
:102C58002268136843F400531360DFE7019B013BCC
:102C68000193B8E7002003B0BDE8F083040000201A
:102C780070B584B004460B460D46164600920122F4
:102C88000221FFF791FFD0B9174B1B68174AA2FB27
:102C980003235B0D4FF47A7202FB03F3039363681B
:102CA800B3F5827F11D0039B3BB1039B013B039398
:102CB80023689B6813F0800FF5D104B070BD636D75
:102CC80043F0200363650320F7E700962B460022B4
:102CD80080212046FFF768FF0028EED0636D43F09F
:102CE800200363650320E8E704000020819F5E1647
:102CF80010B582B004460B464168B1F5827F14D006
:102D08006168B1F5827F2AD1A168B1F5806F19D0C9
:102D18000092002280212046FFF746FF30B3636D02
:102D280043F020036365032020E08168B1F5004F7C
:102D380002D0B1F5806FE3D12068016821F040012D
:102D48000160DDE70092002201212046FFF72CFFF9
:102D580060B1636D43F020036365032006E00092D1
:102D6800002201212046FFF71FFF08B902B010BD5D
:102D7800636D43F0200363650320F7E7704700287D
:102D88005AD010B50446436A33B94368B3F5827F15
:102D980005D00023C36102E00023036143610023DF
:102DA800A36294F85130002B40D0022384F85130AC
:102DB8002268136823F040031360636803F4827386
:102DC800A26802F404421343E26802F40062134367
:102DD800226902F002021343626902F001021343FE
:102DE800A26902F400721343E26902F03802134345
:102DF800226A02F080021343A26A02F40052216898
:102E080013430B60638B03F00403626A02F0100241
:102E1800216813434B602268D36923F40063D361AC
:102E280000206065012384F8513010BD84F85030CB
:102E38002046FFF7A3FFB8E7012070472DE9F043CC
:102E480083B00446894690461D46FEF7B7FF94F8BE
:102E58005130012B40F0CD800646DFB249460029AB
:102E680000F0C8804246002A00F0C48094F8503030
:102E7800012B00F0C380012384F85030032384F829
:102E8800513000236365C4F83090A4F83480A4F866
:102E98003680A363A387E38763642364A368B3F5D9
:102EA800004F1ED023681A6812F0400F03D11A6829
:102EB80042F040021A60E368B3F5006F1CD0636803
:102EC80013B14346012B5FD1226B236812781A7322
:102ED800236B01332363E38E9BB2013B9BB2E386F2
:102EE80052E02268136823F04003136022681368D5
:102EF80043F480431360D5E7636813B14346012B5D
:102F080015D1226B23681288DA60236B023323639E
:102F1800E38E9BB2013B9BB2E38608E0FEF74EFFCF
:102F2800801BA84202D3B5F1FF3F15D1A5B1E38EAE
:102F38009BB2002B42D023689A6812F0020FEDD0A2
:102F4800226B1288DA60236B02332363E38E9BB211
:102F5800013B9BB2E386EAE7012384F85130002362
:102F680084F85030032745E0226B12781A73236BDC
:102F780001332363B4F836C01FFA8CFC0CF1FF3C14
:102F88001FFA8CFCA4F836C0E38E9BB2B3B1236859
:102F98009A6812F0020FE7D1FEF710FF801BA842D3
:102FA80002D3B5F1FF3F01D1002DEDD1012384F803
:102FB8005130002384F8503003271BE0324629465D
:102FC8002046FFF755FE08B120236365A36833B98F
:102FD80001932368DA6801929B680193019B01239E
:102FE80084F85130002384F85030636D13B91F46BC
:102FF80000E00227384603B0BDE8F0830227F9E76E
:103008002DE9F04383B004460F46914698460A9D41
:10301800FEF7D4FE064694F851306268012B0BD0B7
:10302800D9B2B2F5827F40F00D81A368002B40F041
:103038000D81042940F00C81002F00F00B814B46D4
:10304800002B00F009814346002B00F0078194F81B
:103058005030012B00F00481012384F8503094F89B
:103068005130042B02D0052384F8513000236365C6
:10307800C4F83890A4F83E80A4F83C802763A4F8EC
:103088003680A4F834802364636423681A6812F0D5
:10309800400F03D11A6842F040021A60E368B3F5A2
:1030A800006F13D0636813B14346012B0BD1226B19
:1030B800236812781A73236B01332363E38E9BB260
:1030C800013B9BB2E38601231F4674E0636813B19A
:1030D8004346012B0BD1226B23681288DA60236BDD
:1030E80002332363E38E9BB2013B9BB2E386012349
:1030F8001F461BE02268936813F001030ED0E18F8E
:1031080089B259B1D168A26B1180A26B0232A26355
:10311800E28F92B2013A92B2E2871F46FEF74EFE64
:10312800801BA84202D3B5F1FF3F1FD1E38E9BB2AB
:103138001BB9E38F9BB2002B64D023689A6812F006
:10314800020FD7D0E28E92B2002AD3D0002FD1D06E
:10315800226B1288DA60236B02332363E38E9BB2FF
:10316800013B9BB2E38600231F46C3E7012384F893
:103178005130002384F85030032064E022689368BB
:1031880013F001030ED0E18F89B259B1D168A26B57
:103198001170A26B0132A263E28F92B2013A92B22D
:1031A800E2871F46FEF70AFE831BAB4202D3B5F146
:1031B800FF3F1FD1F5B1E38E9BB213B9E38F9BB2EA
:1031C80003B323689A6812F0020FD7D0E28E92B246
:1031D800002AD3D0002FD1D0226B12781A73236B18
:1031E80001332363E38E9BB2013B9BB2E38600234A
:1031F8001F46C3E7012384F85130002384F8503078
:10320800032020E0324629462046FFF731FD90B9D9
:10321800A36833B901932368DA6801929B68019324
:10322800019B012384F85130002384F85030636DEA
:103238004BB1012007E020236365002384F8503058
:10324800012000E0022003B0BDE8F0830220FAE785
:103258000220F8E70120F6E70120F4E70120F2E771
:103268000220F0E72DE9F04383B01D4690F8513075
:10327800012B40F0B280044688469146DEB2002910
:1032880000F0AC80002A00F0A9804368B3F5827F83
:1032980001D1836853B3FEF791FD074694F8503087
:1032A800012B00F09F80012384F85030042384F818
:1032B800513000236365C4F83880A4F83C90A4F822
:1032C8003E902363A386E38623646364A368B3F50F
:1032D800004F15D023681A6812F0400F03D11A68FE
:1032E80042F040021A60E368F3B143E0042380F837
:1032F8005130009513460A46FFF782FE06466DE0F8
:103308002268136823F0400313602268136823F4CB
:1033180080431360DEE7FEF751FDC01BA84202D3CD
:10332800B5F1FF3F15D1A5B1E38F9BB2002B42D079
:1033380023689A6812F0010FEDD0A26B1B7B137003
:10334800A36B0133A363E38F9BB2013B9BB2E3877B
:10335800EAE7012384F85130002384F8503003262B
:103368003CE0FEF72BFDC01BA84202D3B5F1FF3F9E
:1033780019D1C5B1E38F9BB2EBB123689A6812F0FB
:10338800010FEED0DA68A36B1A80A36B0233A36334
:10339800B4F83EC01FFA8CFC0CF1FF3C1FFA8CFC01
:1033A800A4F83EC0E6E7012384F85130002384F8EE
:1033B8005030032612E03A4629462046FFF798FC8B
:1033C80008B120236365012384F85130002384F871
:1033D8005030636D13B91E4600E00226304603B034
:1033E800BDE8F0830226F9E7026802F10C0353E80E
:1033F800003F23F490730C3242E800310029F3D1E6
:10340800026802F1140353E8003F23F00103143269
:1034180042E800310029F3D1036B012B05D02023AA
:1034280080F84230002303637047026802F10C03FE
:1034380053E8003F23F010030C3242E80031002922
:10344800F3D1ECE710B504460268136923F440533E
:10345800C1680B431361836802691A4343691A43BD
:10346800C3691A430168CB6823F4164323F00C039D
:103478001343CB600268536923F4407381690B439B
:1034880053610368314A934206D002F58062934241
:1034980002D0FFF74FF801E0FFF75CF8E369B3F5F6
:1034A800004F29D00021031849411B1841F10001A0
:1034B800C90041EA5371DB00181863684FEA8302B8
:1034C8004FEA937341F10001FDF742F9204AA2FB4C
:1034D80000314909642303FB11031B013233A2FBAA
:1034E80003235B0903F0F00202EB011203F00F0360
:1034F800216813448B6010BD0023021843EB0301BD
:10350800121841F10001C90041EA5271D2001018A5
:1035180041F10001626892185B41FDF719F90C4A04
:10352800A2FB00314909642303FB1103DB0032339A
:10353800A2FB03235B095A0002F4F87202EB0112A2
:1035480003F00703216813448B60D4E7001001409F
:103558001F85EB512DE9F04182B004460D46164611
:103568009846089F23681B6835EA03030CBF4FF091
:10357800010C4FF0000CB44526D1B7F1FF3FF1D054
:10358800FEF71CFC4346C01AB84221D817B323687B
:10359800DA6812F0040FE5D0802DE3D0402DE1D099
:1035A8001A6812F0080FDDD0002501951A680192FB
:1035B8005B680193019B2046FFF716FF08236364AD
:1035C80084F84050012000E0002002B0BDE8F081FE
:1035D8000320FAE70320F8E7704760B310B5044604
:1035E80090F8413013B3242384F841302268D3681B
:1035F80023F40053D3602046FFF724FF22681369A1
:1036080023F4904313612268536923F02A0353611A
:103618002268D36843F40053D360002060642023F9
:1036280084F8413084F84230606310BD80F840303F
:10363800FFF7D2FFD7E7012070472DE9F04184B0AA
:103648001E4690F84130202B57D104460D460029DC
:1036580057D003920AB9012050E000234364212384
:1036680080F84130FEF7AAFB0746039BA384E38456
:10367800A368B3F5805F02D00023984616E023695B
:103688003BB30023984611E0202384F841300320FF
:1036980034E0424632F8023B90462268C3F30803FE
:1036A8005360E28C92B2013A92B2E284E38C9BB20C
:1036B80093B100963B46002280212046FFF74AFF3F
:1036C8000028E1D1002DE4D015F8012B23685A60B9
:1036D800E7E7A8461D46E9E700963B460022402159
:1036E8002046FFF737FF18B9202384F8413005E05A
:1036F800202384F84130032000E0022004B0BDE814
:10370800F0810120FAE70000DFF834D0FEF7DEFA96
:103718000C480D490D4A002302E0D458C450043324
:10372800C4188C42F9D30A4A0A4C002301E01360FA
:103738000432A242FBD300F011F8FDF775FB704785
:10374800000002200000002010000020E8620008AD
:10375800100000206C660020FEE7000038B5054C1C
:10376800054DAC4204D054F8043B9847AC42FAD11A
:1037780038BD00BF00000000000000000CB430B5E8
:103788008BB004460D462022002102A8FCF7D6FD86
:10379800134B03930222002D8DF80A2006941DDB9B
:1037A80010D0013D2C440FAA0E99019202A807944B
:1037B80000F0B2F9069B00221A700BB0BDE8304049
:1037C80002B070470FAA0E99079402A8019200F060
:1037D800A3F90BB0BDE8304002B070470024E2E71F
:1037E800095E00082DE9F04180460C461546C3F1F4
:1037F800370703F01F064046214632460023FCF7F0
:10380800A7FFD2B207EB020C5FFA8CFC092A88BF2B
:1038180062462346B04502F1300273F1000305F811
:10382800012B80460C46E6D22846BDE8F08100BF51
:103838002DE9F0410E46154601218D4208DD03466B
:1038480001E0252A06D01A789C460133002AF8D1CF
:10385800BDE8F08193F800E0BEF1250F0CF10203FA
:10386800F1D000274FF000080BE0AA4C24FA02F22E
:10387800D20740F11D8113F801EBBEF1000F00F0F3
:103888008F80AEF12002102AEFD90022AEF1240C6D
:10389800BCF1150F1ED8DFE80CF0B01D1D1D1D1D55
:1038A800A91D1D1DA91D0B0B0B0B0B0B0B0B0B0BDC
:1038B80007EB8702AEF1300E0EEB4207202213F819
:1038C80001EBBEF1000F6CD01F2A40F2C1807F2AA5
:1038D80040F2B580AEF14C0CBCF12E0F61D801A4BA
:1038E80054F82CF0F9390008AB390008AB39000856
:1038F800AB390008AB390008AB390008AB39000810
:10390800AB390008AB390008AB390008AB390008FF
:10391800AB390008AB390008AB390008AB390008EF
:10392800AB390008AB390008AB390008AB390008DF
:10393800AB390008AB390008AB390008AB390008CF
:10394800AB390008AB390008AB390008AB390008BF
:10395800AB3900082F3A0008AB390008F9390008DC
:10396800AB390008173A0008AB390008AB39000832
:10397800AB390008AB390008AB390008AB3900088F
:10398800AB390008C7380008AB390008AB39000864
:10399800AB390008AB390008AB390008C738000854
:1039A8000022B8F1000F3FF453AF88457FF44BAFC6
:1039B8004EF0200CACF16504022C336840F2A48070
:1039C800BCF1610F00F0A080AEF1630EBEF1100FE4
:1039D80000F29580DFE80EF01793939393939393F7
:1039E80093939393939393931700B846002766E7AE
:1039F80042F4207292B262E70022B8F1000FF4D0CC
:103A0800B942F3D1336804333360013115E742F426
:103A1800007C12F0800F1FFA8CFC18BF624642F03F
:103A2800800292B24BE742F4007C12F4807F1FFAC6
:103A38008CFC18BF624642F4807292B23FE72022A3
:103A480024E713F801EB00221746BEF1000FA8D0B7
:103A5800AEF1200C2F4ABCF1100F22FA0CF23FF6FF
:103A680014AF12F001027FF406AFAEF1240CBCF1E2
:103A78000C0F95D801A454F82CF000BF033A0008A5
:103A8800A9390008A9390008A9390008A939000886
:103A9800A93900084B3A0008A9390008A9390008D3
:103AA800A93900084B3A0008A9390008B9380008B4
:103AB800AEF124020C2A3FF673AF0FF2080C5CF843
:103AC80022F000BF013A0008A9390008A939000806
:103AD800A9390008A9390008A9390008013B0008DC
:103AE800A9390008A9390008A9390008013B0008CC
:103AF800A9390008B938000800221746DFE614067D
:103B080081D592057FF57FAF073323F0070308338C
:103B18007AE700BF892801002DE9F04F0746807831
:103B2800800793B040F1228708787E680B920028BE
:103B380000F06F86049201F1010B4FF0000A8846ED
:103B480005910EE03946B0470028C0F23C810AF1E1
:103B5800010AD84698F800000BF1010B002800F084
:103B680038812528EED198F801300293252B08F1E9
:103B7800020BE7D04FF000081D46C146CDF80C8077
:103B880044461F2C41D97F2C75D9A5F14C032E2B07
:103B980000F22381DFE813F0DB002101210121017C
:103BA80021012101210121012101210121012101FD
:103BB80021012101210121012101210121012101ED
:103BC80021012101210121012101210121012101DD
:103BD8008B012101DB0021017B0121012101210150
:103BE8002101210121012101B5002101210121012A
:103BF80021012101B50044F002041BF8015B44F0E7
:103C08000404A4B2002D00F08180A5F12003102B3C
:103C180031D801A252F823F0033C00087F3C000889
:103C28007F3C0008213D00087F3C00087F3C0008DD
:103C38007F3C00080B3D00087F3C00087F3C0008E3
:103C48007F3C0008FF3B00087F3C0008333D00082C
:103C58007F3C00087F3C0008453D00086206A5F14E
:103C6800300540F1878108EB880805EB48081BF808
:103C7800015B002D4AD0A5F12403152B85D801A29C
:103C880052F823F0E53C0008933B0008933B0008FA
:103C9800933B0008933B0008933B00085D3E0008F7
:103CA800933B0008933B0008933B0008813E0008C3
:103CB800933B0008653C0008653C0008653C00082B
:103CC800653C0008653C0008653C0008653C000848
:103CD800653C0008653C0008653C0008039B002B18
:103CE80000F05581049B0B93610600F16B814A46F5
:103CF80005980BA9FFF79CFD0B9B1A1DD3F80090A4
:103D08000B921BF8015B002D7FF43BAF202202953C
:103D18006FF04403069265E01BF8015B44F0100461
:103D2800A4B2002D7FF471AFF0E71BF8015B44F0FB
:103D38000804A4B2002D7FF468AFE7E71BF8015B25
:103D480044F00104A4B2002D7FF45FAFDEE71BF856
:103D5800015B44F42074A4B2002D7FF416AFD5E7BC
:103D68004FF0000920463946B04700282BDB9DF864
:103D780034300AF1010A1C0740F13782DFF88489E0
:103D880008F1FF3402E0B04700281CDB224614F893
:103D9800013F581B3946C0B2002BF4D10AF1010487
:103DA800A4EB08041444D846A246A144A9EB0A038C
:103DB800002B39464FF020007FF7CCAEB0470028E3
:103DC8000AF1010AF2DABB7843F004034FF0FF3A34
:103DD800BB70504613B0BDE8F08F45F02003069342
:103DE8000295653B039A3AB107930598049B0B9398
:103DF8000BA9FFF71DFD079BB8F1000FBCBF24F00E
:103E080040044FF00008B9F1000FBCBFC9F1000928
:103E180044F00804022B5AD9069B612B00F07A81E2
:103E2800029B633B122B00F25F82DFE813F063030F
:103E380071025D025D025D025D0271025D025D025A
:103E48005D025D025D02710323035D025D02F802FB
:103E58005D026D03039B002B7FF453AF0B9B53F85C
:103E6800042B0B93630640F1BD801BF8015B002D0A
:103E780000F0C2809046FEE66506AAD41BF8015BF6
:103E880044F04004A4B2002D7FF4F5AE3EE744F4BC
:103E9800007314F0800F9BB218BF1C461BF8015B1F
:103EA80044F08004A4B2002D7FF46FAE2EE744F4F2
:103EB800007314F4807F9BB218BF1C461BF8015B8B
:103EC80044F48074A4B2002D7FF45FAE1EE7029B19
:103ED800DD430B9B073323F0070303F10802D3E903
:103EE8000001630605F020050B925BD5069B652B48
:103EF80000F0F381662B00F0898118F0FF0240F092
:103F0800B88403946524012394460994CDE9002CD0
:103F18000CAA079200F0B6FEC3B2089302210C9BCC
:103F280002930691029A02F10903122B0DD902F1AC
:103F38006303C62B40F2308102F2E73240F2CE73BF
:103F48009A4200F2A981032106919DF8343013F0BA
:103F5800010403F00C0260D1039810F0020F40F046
:103F6800168110F0040000F08A81002A00F03482E3
:103F78002024F5E009EB890905EB49091BF8015BE9
:103F880044F02004A4B2002D7FF475AEBEE61BF801
:103F9800015B98461C46002D00F04385CDF80C9037
:103FA800994632E6069B652B00F09081662B00F05F
:103FB8002B814FF00608039443460022652494465B
:103FC8000994A3E7424605980BA9FFF731FC0B9B20
:103FD8001BF8015BD3F800801A1D0B92002D7FF4AB
:103FE800D2AD93E61BF8015B44F02004A4B29146DD
:103FF800002D7FF440AE4246002AC0F2828500239D
:10400800B9F1000F02934FF02003BCBFC9F10009BA
:1040180044F008049046069302E7002A40F09F8087
:104028002D22039B13F4405F00F0F9809B0440F1BC
:10403800B880029B23EAE3730133002A40F0BB8077
:10404800B8F1000F00F0388108F101010B444B452D
:1040580080F2B981A9EB0309039B13F0090F00F063
:10406800C681039B190510D539463020B047002872
:10407800FFF6A9AEC5F1780000F0F8003946B04760
:104088000028FFF6A0AE0AF1020A039B1A0740F1C6
:10409800B082039B9B0400F1C8829DF83500394625
:1040A800B0470028FFF68FAEB8F1000F00F3F18299
:1040B800039BDC0600F114830AF10104099B581BD9
:1040C800C0B23946B0470028FFF67DAE029B002BF0
:1040D800BABF5B422D202B203946B8BF0293B047A8
:1040E8000028FFF670AE069B042B00F01582032B08
:1040F80004F1020400F02482012B40F0348202987B
:104108003030C0B23946B0470028FFF65CAE013403
:10411800D84649E6029BDD430B9B073323F0070390
:1041280003F10802D3E900010B9244F4C05362067C
:1041380005F0200503935BD40CAA4FF0FF330095DC
:10414800079201F0D3FB431CDBB2089303F1FF385D
:104158000C9B02930121702306910993E2E62D241A
:10416800B9F1040F7FF7FCAD039B1B07A9F1040904
:104178003FF5F8ADD14402E0CA4500F072833946F4
:104188002020B04700280AF1010AF5DA1BE6002AC8
:1041980040F085802B2244E702210691D5E60EF1F6
:1041A800FF38039B13F4006F14BF052303230B444C
:1041B800002A3FF445AF591CB8F1000F73D008F13D
:1041C80001030B444B4580F20481A9EB0309039BCF
:1041D80013F0090F00F00B8110463946B04700284C
:1041E800FFF6F1AD0AF1010A3BE7DFF81C85C7E5E8
:1041F8000CAA43460095079201F078FB431CDBB2FA
:1042080043450893A4DBA1E74FF0060844F40053A4
:1042180066240393C44611230122099476E6089B79
:10422800B8F1000F14BFC6464FF0010E002B00F086
:1042380063840DF13500184403E013F0FF0400F027
:10424800C08210F801CDBCF1300F1C4603F1FF33DA
:10425800F3D09846E3B20893039B13F0100300F0E1
:104268009182029B181D9ADB734598DA039B43F4ED
:1042780000530393029B0133AEEB0308D9E6002AEF
:104288003FF4CFAEB9F1030F0BDD039A1207A9F182
:1042980003093FF570AD6DE70421069155E62B241F
:1042A8005EE7814667E50398C40640F197800233CC
:1042B8004B458ADBC1468FE70399C80640F1A580C4
:1042C80001334B45FFF6C6AEC146CAE607234FF099
:1042D800060844F4805203926FE608F10103DBB24A
:1042E800112B28BF1123F4E7069B782B00F02983B4
:1042F80039462520B0470028FFF665AD02983946B3
:10430800B0470028FFF65FAD0AF1020AD84621E45B
:1043180022060B9B40F19C82A50540F1938307334D
:1043280023F0070303F108020B92D3E9002324F0DA
:104338001001002B0391C0F2A38252EA030140F05E
:104348000A84630640F11683B8F1000F40F08D83AC
:1043580040F20643234024F011029BB20392002B43
:1043680000F03084434642460399090702F10102EE
:1043780040F18583A9EB02090293039B13F0020F16
:1043880014BF2B20202013F4806F18BF2D2039462E
:10439800B0470028FFF617AD029B0AF101049845C3
:1043A80040F3F28308EB040AAAEB030A1D4602E075
:1043B800544500F0ED8039463020B047002804F11C
:1043C8000104F5DAFFE4039B1C0591463FF54CAE6A
:1043D8005FE64FF00009FFE6202222E64945BFF6D6
:1043E80069AF10F0090FA9EB01097FF4F5AED144CC
:1043F800144602E0CA4500F0D68339462020B0476B
:1044080000280AF1010AF5DADDE44B4580F29282D0
:1044180011F0090FA9EB03097FF423AEE7E70B9B23
:10442800B448191D0B911A68002A08BF024614F0F7
:10443800400F18BF4146104608BF4FF0FF310292A7
:1044480001F046FA029A80462007494600F1B980F1
:10445800C84580F0B68014464D4603E0984580F084
:10446800A980994639462020B047002809F1FF3332
:10447800F4DAA8E4782244F010041023029214F02D
:10448800800C0B9A00F0888014F4007100F09D8174
:10449800073222F0070202F108010B91D2E900016C
:1044A80004F0400550EA0102039540F0408124F0F1
:1044B80016010691002D00F02981B8F1000F40F097
:1044C800AB81210740F1EE820CAA43460792D5182A
:1044D8002C46904605E014F8010DB0470028FFF679
:1044E80072ACA0453946F6D1079A0AEB05039C1A27
:1044F800D84659E40B9B1A688DF8302004334FF0E6
:1045080001080B930CAA9FE724F010040A23B6E7CE
:10451800002208230292B2E7029B774DA5FB0335E0
:10452800AD0905F13000C0B23946B0470028FFF6A2
:104538004AAC029A4FF47A7303FB152303340293AF
:10454800029A6E4BA3FB02235D0905F13000C0B24D
:104558003946B0470028FFF636AC029A642303FBBD
:10456800152301340293029B654DA5FB0335ED0825
:1045780005F13000C0B23946B0470028FFF623AC39
:10458800029B05EB8505A3EB450302930134B6E5D1
:104598000CAA2B4607929AE7111D0B9114F480710F
:1045A80010683FF47DAF14F400711ABFC0B26146C1
:1045B80080B275E70AF1010AAA442246AAEB090A61
:1045C800194602EB080514469146029105E014F8D5
:1045D800010BB0470028FFF6F6ABAC423946F6D1DE
:1045E8000299AAEB09031C44A1EB0809D846FFF776
:1045F800DBBBB9F1000F3FF44CADD14402E0CA4532
:1046080000F0E78039463020B04700280AF1010A57
:10461800F5DAFFF7D8BB039B03911C05904691463A
:104628003FF522AD18077FF534AD029BCDF818B0E1
:104638000DF13505C8F100021D4423EAE378A5EB26
:104648000805CDF81C90DDF820B0C146904601E081
:104658000135A246029BA3EB0902934509F1FF39F4
:104668008CBF28783020C84539460AF1010400F388
:10467800B380B0470028FFF6A6ABB9F1FF3FE7D1FA
:1046880039462E20B0470028FFF69DAB0AF10204F8
:10469800DEE739462E20B0470028FFF694ABCDF868
:1046A8000CB04446DDF820B0DDF81C8008950125E3
:1046B80000E0154608EB05025D45B4BF507930208F
:1046C8003946B0470028FFF67EAB6A1CA242F0DDEF
:1046D8002C460AF10203DDF80CB0089D1C44EDE4F9
:1046E80039462E20B0470028FFF66DAB0AF10204C8
:1046F800E4E400BFB8620008D34D62101F85EB5197
:10470800CDCCCCCCB4620008B06200080CAA002062
:10471800002114460792FFF765F8031B069A12F06A
:10472800080200F09781A9EB0309544637E60CAA62
:1047380024F0060507920695FFF754F8079A831A9E
:10474800039A002A00F0378124F0070243450392B8
:10475800C0F2FD80E50640F14A82029A04F00801A1
:10476800002A40F03F815A1C002900F0A7813946F1
:104778003020A9EB02090293B0470028BFF60CAE1F
:10478800FFF721BB029810F1040FFFF60AAD704540
:10479800BFF607AD0399A04241F40051C0F2E4818D
:1047A800002A00F091810230484580F2D881A9EBB7
:1047B80000090398039110F0090000F0F28198466F
:1047C8000AE508944FF0FF3846E5101D0B90106875
:1047D80066E64FF000095CE4DDF818B0C846DDF87D
:1047E8001C90B0470028FFF6EEAA039BDD0602D511
:1047F800B8F1FF3F02D0D846FFF7D6BA39462E2087
:10480800B0470028FFF6DFAA0AF10204D846FFF7EE
:10481800CBBA8246FFF7DDBA0CAA00200021154664
:104828000792FEF7DFFF431B24F01702434503926C
:1048380080F2DD81029A002A40F02B81069A12F05C
:10484800080500F020814246A9EB02095446A6E576
:104858001A1DE1051B680B9200F1DA801A46DB1776
:1048680065E5002C7FF47CAA9DF83430A146FFF75B
:1048780082BA112A1346039428BF1123FFF79DBB60
:10488800524263EB430341F480640CAD1046194671
:104898002A460A230795FEF7A5FF431B650640F144
:1048A8005C8140F20641214024F00102434589B26F
:1048B80003921A46B8BF424600297FF455AD210736
:1048C800C2D44A4580F29E81CDE90623029D144652
:1048D80002E0494509DA0C4639462020B04700284D
:1048E80004F10101F5DAFFF76EBADDE906230AF1F2
:1048F800010AAAEB020A039A0295A9EB0109D1065B
:10490800A24440F10E81394630200393B047002875
:10491800FFF659AADDE90223002A00F098800298E0
:1049280003933946B0470028FFF64DAA039B0AF1C6
:10493800020434E50B461B05C1463FF595ABFFF76E
:10494800A8BB029BC3F1780343F0100397E5029AD2
:10495800002A3FF473AFE20640F19B80200708F17C
:10496800020240F1E880A9EB0209CCE74FF0FF3AD8
:10497800FFF72FBA0CAC0A23224600200021079427
:10498800FEF730FF031B039940F206420A4092B239
:10499800002A00F0248111F0080003F101027FF4DD
:1049A800E9ACCC076BD54A45A9EB0201C0F2B68049
:1049B80089469846E0E4E0067FF5B0AE029A04F036
:1049C80008018AB95A1C00297FF4D1AEE10773D5D2
:1049D8004A45A9EB020180F28C80DDF8089003EBD0
:1049E800010890E7039A06929A1C0029BBD1069900
:1049F800C80740F1D0804A45A9EB020179DA1022B4
:104A080003EB0108002A00F0C3804FF000097AE7A1
:104A1800A2054BBF5AB21AB243F3C01343F3C033D3
:104A280085E40295B9F1000F3FF462AC049B059848
:104A38000B934A460BA9FEF7FBFE20230693C146BB
:104A4800FFF7EEB91A6804330B93D3176FE40AF132
:104A58000104A4E40699CC0740F1AC804B45A9EBCE
:104A68000301CDDB079A894631E50A230CAA002009
:104A78000021FEF7B7FE0CAB039CC31A11E74A45A9
:104A8800FFF622AF76E422F01102CDE90252424647
:104A980017E74146039A12F0080200F09780424651
:104AA8008846D1E624F017030393B9F1000F00F00C
:104AB800A5804346424607E70699039191457FF74B
:104AC80056AE00210291FFE6034601334B45BFF67F
:104AD800A2ADA9EB0309039B039113F0090F9046BC
:104AE8003FF485AC1A053FF5BFAA1B077FF585ADD6
:104AF8009BE58946984606E71C464FF0FF38FFF7C6
:104B0800ABBBB9F1000F24F0400431DB4FF00008D3
:104B18002023CDF808800693FFF782B903EB01083C
:104B28008146039940F206420A4092B2002A7FF475
:104B380023AC544633E44A45FFF6C6AE3946302026
:104B480006930392B0470028FFF63DA9039A069BF7
:104B5800A9EB0209E3E6039C97E6039413E798465A
:104B680003919946FFF738BB0391A646FFF782BB2E
:104B78004FF000082023C9F1000944F00804CDF8DB
:104B880008800693FFF74CB90CAAA24607929EE448
:104B98005446914603E44A45B8BF0391FFF694AEE4
:104BA800E1E6804623E42246002C7FF412ACA146BD
:104BB800FFF757BA4B45A8BFA9EB0309B9DA039128
:104BC8001A4681E625073FF57FAC6EE70398C507CF
:104BD80008D5C845A9EB0801FFF612AF42E74146E0
:104BE800984657E7C84512DA424688466CE6039A63
:104BF80012F0080F1A467FF427AE62E60CAA4B465D
:104C0800079264E4A9EB02095446FFF7C8BBA9EB75
:104C1800080954468846FFF7C2BB00BF70B58AB082
:104C280004460D4616460021202202A80193FBF7F0
:104C380085FB134A0392002D4FF00202019B069454
:104C48008DF80A2015DB0CD0013D2C441A4631465C
:104C580002A80794FEF760FF069B00221A700AB0AC
:104C680070BD1A46314602A80794FEF755FF0AB0F0
:104C780070BD1A46314602A8FEF74EFFECE700BFAA
:104C8800095E00082DE9F04F9BB0C1F30A559DF865
:104C980090400C92CA0F0E940F930446C1F3130769
:104CA8000D92002D40F0928150EA070300F08682B1
:104CB800BA00012342EA9072069200EA03021192B6
:104CC800DFF82085079382000592994640F2344523
:104CD8009A46284600F084FCA0EB090909EB080372
:104CE800A5EB0900109300F083FC0DF1580BA0F11F
:104CF8007D03A9EB0303A5EB09005946049300F0D3
:104D0800A3FC26197F4112AB00933046DDE9162338
:104D1800394600F09FFD14AB04460D46304639462F
:104D28000093DDE9182300F095FDDDE9126387198A
:104D380053EB0108149B16994FF0000228BF01227B
:104D4800D218159B149243F1000360181799159314
:104D580045EB0101A042A941DDE9180134BF012654
:104D68000026381848EB0101301841F10001B8421B
:104D780071EB080634BF01260026B218049EA6F17E
:104D8800410643F10003009600F07CFD169A099253
:104D9800179A03910A92DDE91821DDE9143C08907D
:104DA8000B91BAF1000F40F01F82049914EB040E26
:104DB80045EB0500403917EB070A009148EB08015D
:104DC800A64570EB050534BF012400241AEB040442
:104DD80041F1000509998E450A99884134BF01209F
:104DE8000020201A65F10001801A0B9A61EB02017C
:104DF800DB184CEB0C0CBC4275EB080234BF0122EB
:104E080000229A184CF1000384428D4134BF0124DA
:104E18000024121B63F1000300F034FD8246049164
:104E2800DDE9142300963846414600F02BFDB9F120
:104E3800010F04460D4640F22583B9F13E0F00F2FA
:104E48004F834FF0FF33A9F1200003FA00F003FA73
:104E580009F1C9F1200223FA02F201431143059A2C
:104E680003FA09F322EA0302069B23EA01031A4321
:104E78000CBF012300230593002307930E9B002BEF
:104E880000F099810A2C75F10003C0F083830A238E
:104E98000022012091009E0041EA9371F31842EB31
:104EA8000102DB1852419C4275EB020100F101003E
:104EB800F0D2109B259A03441344D20F9342B8BFF3
:104EC80013460F9A9342A8BF13460A934FF0000C5B
:104ED80008980399CDF818C0CDF82CC0CDF824C097
:104EE800BF4ACDF800B04FF0CC3300F0B3FC169FAA
:104EF800179B0499BA4ACDF800B0FF0847EA4377F0
:104F08004FEAD30850464FF0CC3300F0A3FC169E6E
:104F1800179BF60846EA43764FEAD309BE4279EB77
:104F280008031ED30A2C75F10003C0F07B810A2305
:104F3800002201204FEA820C99004CEA937CCB189E
:104F480042EB0C0CDB184CEB0C029C4275EB02019B
:104F580000F10100EED20A9B984240F36C810123D4
:104F68000B939F4ACDF800B0294620464FF0CC332A
:104F780000F070FC069B0999179DCDF8109006EB80
:104F88008602BAEB420F079A089703F1010302F071
:104F98000102069318BF0022169B0792059ACDF8C6
:104FA8000C80DB0843EA4573002914BF002202F095
:104FB8000102059203EB8302A4EB4202D2B2ED0890
:104FC800B24609921C463846414689E740F2FF73CB
:104FD8009D420DD10743134618BF42F008030C9AAF
:104FE80008BF43F00403002013711BB0BDE8F08F25
:104FF80047F48016B30043EA9073069300F0010368
:10500800119307434FEA8003A5F23548059340F012
:10501800E18040F2FE7313EA11530CBF0123002311
:10502800079309939A46B8F1000FC0F2C182241978
:105038004046764100F0CCFAB8F1030FD4BF814660
:10504800A0F101094846CDF8409000F0D1FA0DF1E1
:10505800580B00F17C03A9EB08085946484603EBB6
:10506800080700F071FB12AB00932046DDE9162318
:10507800314600F0EFFB14AB05468A462046314620
:105088000093DDE9182300F0E5FBDDE91236C418CA
:105098004E41149B16994FF0000228BF0122D218E6
:1050A800159B149243F100036818179915934AEB5E
:1050B8000101A84271EB0A01DDE9180134BF4FF084
:1050C800010C4FF0000C201846EB01011CEB00000E
:1050D80041F10001A04271EB060C34BF4FF0010C06
:1050E8004FF0000C1CEB0202A7F1410843F100034A
:1050F800CDF8008000F0C6FBDDE914E30493169BAD
:105108000793DDE917C30A93099B0391089019993E
:10511800002B40F06E81403F00976F194AEB0A0060
:10512800231946EB0602AF4270EB0A0534BF01258E
:1051380000255D1942F10003079A974270EB0C00B5
:105148000A9A34BF01200020281A63F10007801A48
:1051580067EB0101049F1EEB0E027F41A54273EB32
:10516800060C34BF4FF0010C4FF0000C12EB0C0290
:1051780047F1000785428B4134BF01230023D21A2F
:1051880067F1000300F07EFB824604912046DDE9CA
:105198001423CDF80080314600F074FBB9F1150FE7
:1051A80004460D4640F245810023059307930E9B64
:1051B800002B7FF467AE0F9B0A9387E60C99134682
:1051C80043F00203302201204A710B710D601BB0BD
:1051D800BDE8F08F012307939A46099323E700BFA0
:1051E800CDCCCCCCCCFBFFFF09980096BA1A68EB63
:1051F800010184420A9875EB000034BF01200020A9
:10520800121A61F10001974278EB0100104634BF91
:10521800012200229A1A6CF1000300F033FB824647
:105228000491FDE50A9B002B05DC7FF498AE54EA57
:1052380005037FF494AE079BDDF824C0002B4CD007
:10524800089FE046A14631E0A74ACDF800B04FF0EC
:10525800CC3300F0FFFA169F179BA34ACDF800B095
:10526800FF0847EA4377DB082946039348464FF08F
:10527800CC3300F0EFFA059B179DB8F1000F14BF6F
:10528800002303F001030593069B01330693E3080B
:105298000493169BDB0843EA457303EB8302A9EBEF
:1052A8004202B246ED085FFA82F899464FF0CC33D5
:1052B8008D4A0499CDF800B0504600F0CBFA169EFE
:1052C800179C0399F60846EA447606EB8603BAEB80
:1052D800430F3846B8D0C4464C46109B069A03EB99
:1052E800020B059B1BB1BCF1050F00F0D1800B9B95
:1052F8002BB9049B9D4208BF544500F0DD80BCF1EA
:10530800040F94BF00260126341945F100050A2C24
:1053180075F10003C0F03A810A23002201209100B0
:105328009F0041EA9371FB1842EB0102DB185241DE
:105338009C4275EB020100F10100F0D2AEB10A9B6C
:10534800834212DA0E9B002B00F0D080259A00EBE6
:105358000B031344012B0F9AB8BF01239A42A8BF2D
:105368001A4682420A92C0F2C1800A9B8342A8BFB1
:10537800034618B200FA8BFB00280BF1FF3330DD2F
:105388000C9A594902F1050C00EB0C064FF0CC3E83
:10539800052714EB050848F10008A1FB082929F0A6
:1053A800030202EB9902A8EB0208B4EB080465F1CA
:1053B80000020EFB04F5A4FB019401FB025509F061
:1053C80001022544A2FB072412EB0802303206F83A
:1053D800012D4FEA5909664549EAC5744FEA550552
:1053E800D7D10C9A136013460D9A1A711BB0BDE8F9
:1053F800F08F0A9BCDF80080E21A079B66EB01014B
:105408009D427AEB0C0C34BF01230023D01A61F1C2
:105418000001844276EB010334BF01230023BEEB75
:105428000302049B63F1000300F02CFA8246049106
:10543800ACE6059E2C4A069914AB009330464FF013
:10544800CC3300F007FA149B159A9B0843EA827341
:1054580003EB8303B34200F09F80119E059B002E4F
:105468007FD1069A013B42F1FF31099A981A61F1FE
:10547800000100F0C5F881458CBF00230123079384
:105488000596FBE4119B002B5FD101230593F5E4FE
:10549800E2070B9B51D423B9049B9D4208BF544596
:1054A80008D00A2C75F1000328BF0026BFF434AFDA
:1054B80001205AE74FF0040C119B002B38D001341F
:1054C80045F100050A2C75F1000328BF0126BFF439
:1054D80023AF0A9B002B77DD0FFA8BF301204FE7F0
:1054E800002307930593C9E4CDCCCCCC053445F112
:1054F8000005364A631943F10003A2FB031626F0A0
:10550800030101EB96015B1AE41A4FF0CC3365F105
:10551800000504FB03F302FB0533A4FB024213441A
:1055280064080BF1010B013844EAC3745D081CE7F9
:10553800079B002B7FF4E3AEC1E7002BBFD1049B90
:105548009D4208BF5445BAD1B6E7089B013B089372
:10555800039B63F10003039301230593002307933F
:105568008CE4981C069B43F1000100F049F8089A66
:1055780081458CBF00230123D31A0893039B63F151
:105588000003039300230593079377E4BCF1040F0A
:105598008ED99EE701208CE4DDE9050100F030F8A2
:1055A80081458CBF0023012305930023079365E4FD
:1055B800C5F5866518F1010905F10505374618BFD7
:1055C8004FF00109FFF785BB0120BBE6CDCCCCCC61
:1055D800024B03FB00F0800C704700BF4134010010
:1055E800024B03FB00F0000D704700BFFB2E0B00C1
:1055F800024B03FB00F0C00C013070474F931200C0
:1056080010B5DFF840C04FF0CC3404FB00F30CFBBE
:1056180001314FF0333EA0FB0C320A449E457EEB2D
:1056280002014FF000000CD304FB03F10CFB021144
:10563800A3FB0C320A449E457EEB020100F10100F7
:10564800F2D210BDCDCCCCCC3D4B2DE9F04FA3FB15
:1056580000384FEAD8081A2505FB08F5394F431BCF
:1056680089B00E4607EB08180AD1D8E90023C1E92A
:105678000023D8E90201C6E9020109B0BDE8F08FAC
:1056880007EBC303D3E9342304A991469A46044699
:10569800D8E9022348460091514600F0DBF80DF1A5
:1056A800180C0B468346514648469946D8E90023CC
:1056B800CDF800C000F0CEF8DDE90632CDE90201F0
:1056C80013EB0B0052EB09084FF0000128BF012132
:1056D800824631B1049B01330493059B43F10003D7
:1056E80005932046FFF784FF81462846FFF780FF91
:1056F800A9EB000552464346DDE90201009500F09A
:10570800C1F8230907EB83076400D7F8A031009597
:1057180004F01E04E340844603F0030313EB0C0378
:105728000A4642F10002C6E900325046DDE9042388
:10573800414600F0A7F8C6E9020109B0BDE8F08FBC
:105748004FECC44E185E00082DE9F04F3F4B404F18
:1057580000F11904A3FB0434E40889B01A262301D4
:1057680004FB06F607F5FC790293331A884609EB21
:1057780004140AD1D4E90023C1E90023D4E90201C1
:10578800C8E9020109B0BDE8F08F07EBC303D3E90C
:1057980034AB04A9D4E90223054600915046594682
:1057A80000F058F8029B039059F803206368013A07
:1057B8000DF1180C63F100030C4650465946CDF81C
:1057C80000C000F047F8DDE906328246039813EB83
:1057D800000954418B464FF0000128BF012131B127
:1057E800049B01330493059B43F100030593304662
:1057F800FFF7FEFE06462846FFF7FAFE361A4A4627
:10580800234600965046594600F03CF82B0907EB12
:1058180083076D00D7F8E832009605F01E05EB40C7
:1058280003F003038446013313EB0C030A4642F1E9
:105838000002C8E900324846DDE90423214600F0A9
:1058480021F8C8E9020109B0BDE8F08F4FECC44E59
:10585800185E00084FF0000C30B58E461446A0FBC9
:1058680002516246EEFB04126446E3FB0014EEFBB1
:10587800032C039812194CF10003C0E900232846B1
:1058880030BD00BF10B5DDF808C0CCF1400E14469D
:1058980003FA0EF302FA0EFECCF1200204FA02F229
:1058A8001343CCF1200201FA02F220FA0CF0104363
:1058B800ACF1200224FA02F21343ACF1200221FADF
:1058C80002F2104321FA0CF14EEA0000194310BD10
:1058D80051B10346014402E001338B4202D01A78E9
:1058E800002AF9D1181A7047084670472DE9F04781
:1058F800C1F3130C4FEAD17E50EA0C069DF8204004
:1059080082F804E0C1F30A5140F2FF7500F0AF805D
:10591800A94200F09281002940F06882CA491160CA
:10592800002B0146E646C0F253820C2B40F3B280AE
:105938000E0911F00F0346EA0E764FEA2E1E00F00C
:105948005382C4F127011944092BC8BF0B463033D1
:10595800300916F00F05937440EA0E704FEA2E1CBA
:105968004FF00D0340F0F68130215174010910F019
:105978000F0041EA0C714FEA2C1C40F07B8130206B
:105988000E0911F00F0E107446EA0C764FEA2C152A
:10599800184640F085813023D373370916F00F037A
:1059A80047EA05774FEA251E40F0C88130233E09B3
:1059B800937346EA0E764FEA2E1317F00F0E40F057
:1059C800AE8130215173350945EA03754FEA231E2C
:1059D80016F00F0340F09681302313732E0946EA20
:1059E8000E764FEA2E1315F00F0E40F07C81302111
:1059F800D172350945EA03754FEA231E16F00F03E5
:105A080040F0D98130239372290941EA0E714FEA97
:105A18002E1315F00F0E40F0BF81302555720E0978
:105A280011F00F0146EA03764FEA231340F0A981EB
:105A380030211172350916F00F0145EA03754FEA56
:105A4800231340F093813021D171290941EA037170
:105A580015F00F0340F0368130239371002940F090
:105A68003F814FF0300C82F805C0BDE8F08700296F
:105A780000F0CA80A94200F02281A1F2FF31002B78
:105A88001160C0F2B8810C2B4FF000014FF4801E5A
:105A98003FF74EAFC3F10D06B6004FF0010C751E6F
:105AA800A6F12107C6F121000CFA05F82CFA00F03E
:105AB8000CFA07F7074318EB080047EB070C4542B9
:105AC8006CEB4C0A013800EA0100A9464CF1FF359D
